{
  "_format": "hh-sol-artifact-1",
  "contractName": "Wallet",
  "sourceName": "contracts/wallet.sol",
  "abi": [
    {
      "stateMutability": "payable",
      "type": "fallback"
    },
    {
      "inputs": [],
      "name": "getBalance",
      "outputs": [
        {
          "internalType": "uint256",
          "name": "",
          "type": "uint256"
        }
      ],
      "stateMutability": "view",
      "type": "function"
    },
    {
      "inputs": [],
      "name": "recevoir",
      "outputs": [],
      "stateMutability": "payable",
      "type": "function"
    },
    {
      "inputs": [
        {
          "internalType": "address payable",
          "name": "_to",
          "type": "address"
        },
        {
          "internalType": "uint256",
          "name": "_amount",
          "type": "uint256"
        }
      ],
      "name": "retirer",
      "outputs": [],
      "stateMutability": "nonpayable",
      "type": "function"
    },
    {
      "stateMutability": "payable",
      "type": "receive"
    }
  ],
  "bytecode": "0x608060405234801561001057600080fd5b50610521806100206000396000f3fe6080604052600436106100385760003560e01c806312065fe0146100965780633ecf08cc146100c157806393c0cbc6146100ea57610094565b3661009457346000803373ffffffffffffffffffffffffffffffffffffffff1673ffffffffffffffffffffffffffffffffffffffff168152602001908152602001600020600082825461008b91906102eb565b92505081905550005b005b3480156100a257600080fd5b506100ab6100f4565b6040516100b89190610350565b60405180910390f35b3480156100cd57600080fd5b506100e860048036038101906100e391906103fa565b61013a565b005b6100f261025b565b005b60008060003373ffffffffffffffffffffffffffffffffffffffff1673ffffffffffffffffffffffffffffffffffffffff16815260200190815260200160002054905090565b6000803373ffffffffffffffffffffffffffffffffffffffff1673ffffffffffffffffffffffffffffffffffffffff168152602001908152602001600020548111156101bb576040517f08c379a00000000000000000000000000000000000000000000000000000000081526004016101b290610497565b60405180910390fd5b806000803373ffffffffffffffffffffffffffffffffffffffff1673ffffffffffffffffffffffffffffffffffffffff168152602001908152602001600020600082825461020991906104b7565b925050819055508173ffffffffffffffffffffffffffffffffffffffff166108fc829081150290604051600060405180830381858888f19350505050158015610256573d6000803e3d6000fd5b505050565b346000803373ffffffffffffffffffffffffffffffffffffffff1673ffffffffffffffffffffffffffffffffffffffff16815260200190815260200160002060008282546102a991906102eb565b92505081905550565b6000819050919050565b7f4e487b7100000000000000000000000000000000000000000000000000000000600052601160045260246000fd5b60006102f6826102b2565b9150610301836102b2565b9250827fffffffffffffffffffffffffffffffffffffffffffffffffffffffffffffffff03821115610336576103356102bc565b5b828201905092915050565b61034a816102b2565b82525050565b60006020820190506103656000830184610341565b92915050565b600080fd5b600073ffffffffffffffffffffffffffffffffffffffff82169050919050565b600061039b82610370565b9050919050565b6103ab81610390565b81146103b657600080fd5b50565b6000813590506103c8816103a2565b92915050565b6103d7816102b2565b81146103e257600080fd5b50565b6000813590506103f4816103ce565b92915050565b600080604083850312156104115761041061036b565b5b600061041f858286016103b9565b9250506020610430858286016103e5565b9150509250929050565b600082825260208201905092915050565b7f496e73756666696369656e742062616c616e6365000000000000000000000000600082015250565b600061048160148361043a565b915061048c8261044b565b602082019050919050565b600060208201905081810360008301526104b081610474565b9050919050565b60006104c2826102b2565b91506104cd836102b2565b9250828210156104e0576104df6102bc565b5b82820390509291505056fea2646970667358221220cdf1c1397bdbe8e8309e89f790e13478c1874696fb30ad00f28c3e4d5e51335a64736f6c63430008090033",
  "linkReferences": {},
  "deployedLinkReferences": {}
}